:020000040800F2
:100000009806002089010008CD040008C5040008F6
:10001000C90400083B020008330C0008000000007F
:100020000000000000000000000000006D06000855
:10003000E1020008000000005505000881070008E3
:10004000A3010008A3010008A3010008A301000800
:10005000A3010008A3010008A3010008A3010008F0
:10006000A3010008A3010008A3010008A3010008E0
:10007000A3010008A3010008A3010008A3010008D0
:10008000A3010008A3010008A3010008A3010008C0
:10009000A3010008A3010008A3010008A3010008B0
:1000A000A3010008A3010008A3010008A3010008A0
:1000B000A3010008A3010008A3010008A301000890
:1000C000A3010008A3010008A3010008A301000880
:1000D000A3010008E50700082D080008A301000897
:1000E000A3010008A3010008A301000800F002F822
:1000F00000F03AF80AA090E8000C82448344AAF188
:100100000107DA4501D100F02FF8AFF2090EBAE885
:100110000F0013F0010F18BFFB1A43F0010318473B
:100120009C0B0000BC0B0000103A24BF78C878C1BB
:10013000FAD8520724BF30C830C144BF04680C60ED
:10014000704700000023002400250026103A28BF35
:1001500078C1FBD8520728BF30C148BF0B60704739
:100160001FB51FBD10B510BD00F031F81146FFF7E7
:10017000F7FF00F083FD00F04FF803B4FFF7F2FF44
:1001800003BC00F053F800000948804709480047C5
:10019000FEE7FEE7FEE7FEE7FEE7FEE7FEE7FEE737
:1001A000FEE7FEE704480549054A064B7047000094
:1001B00085070008ED000008980000209806002040
:1001C00098020020980200207047704770477546DB
:1001D00000F028F8AE4605006946534620F00700B7
:1001E000854618B020B5FFF7DDFFBDE820404FF091
:1001F00000064FF000074FF000084FF0000B21F011
:100200000701AC46ACE8C009ACE8C009ACE8C009DD
:10021000ACE8C0098D4670470446AFF30080204625
:10022000FFF7ABFF00487047340000200149182059
:10023000ABBEFEE726000200704700BFFEE70000ED
:1002400010B524480078002842D0002021490870C9
:1002500021480078512803D11021204800F016F9D8
:100260001D480078482803D110211C4800F00CF9E3
:10027000194800784C2803D12021184800F006F9CD
:1002800015480078522803D12021144800F0FCF8CA
:1002900011480078532803D14021104800F0F6F8A7
:1002A0000D480078432803D140210C4800F0ECF8B9
:1002B00009480078412803D18021084800F0E6F879
:1002C00005480078422803D18021044800F0DCF87A
:1002D00010BD0000040000200000002000080140C4
:1002E00070472DE9F041024600250026002000233A
:1002F0000024002791F803C00CF00F0591F803C00B
:100300000CF0100CBCF1000F03D091F802C04CEAC5
:10031000050591F800C0BCF1000F31D01468002031
:100320002BE04FF0010C0CFA00F3B1F800C00CEA1E
:1003300003069E4220D183004FF00F0C0CFA03F706
:10034000BC4305FA03FC4CEA040491F803C0BCF179
:10035000280F06D14FF0010C0CFA00FCC2F814C0B3
:100360000AE091F803C0BCF1480F05D14FF0010C31
:100370000CFA00FCC2F810C0401C0828D1D314604D
:10038000B1F800C0BCF1FF0F34DD546800202EE04E
:1003900000F1080C4FF0010808FA0CF3B1F800C0A6
:1003A0000CEA03069E4221D183004FF00F0C0CFA99
:1003B00003F7BC4305FA03FC4CEA040491F803C0BC
:1003C000BCF1280F05D100F1080C08FA0CF8C2F8AE
:1003D000148091F803C0BCF1480F07D100F1080C5C
:1003E0004FF0010808FA0CF8C2F81080401C0828E9
:1003F000CED35460BDE8F081F0B50A460023002456
:100400000021002500F00046B6F1004F02D11D4E3C
:10041000F16901E01B4E7168C0F3034583B200F43B
:100420004016B6F5401F08D121F07061154E766870
:1004300026F07066134F7E6012E000F48016B6F569
:10044000801F06D1032606FA05F4A14341F070612E
:1004500006E0460D360103FA06F6B14341F070613D
:1004600022B1460D360103FA06F6314300F000468C
:10047000B6F1004F02D1034EF16101E0014E71600F
:10048000F0BD00000000014041617047016170470C
:1004900008B50121042000F06FF8F020ADF800004D
:1004A00010208DF8030003208DF8020069460448EF
:1004B000FFF717FFF0210248FFF7E6FF08BD000035
:1004C0000008014000BFFEE700BFFEE770470000E4
:1004D00070B5002100230F22C47804B3154C2468A2
:1004E00004F4E064C4F5E064210AC1F10403CA40E5
:1004F000447804FA03F184781440214309010E4C36
:100500000678A155047804F01F050124AC40057855
:100510006D11AD0005F1E025C5F8004109E0047852
:1005200004F01F050124AC40044D0678761145F80F
:10053000264070BD0CED00E000E400E080E100E04A
:1005400002490143024A1160704700000000FA05A9
:100550000CED00E07047000029B1064AD269024361
:10056000044BDA6104E0034AD2698243014BDA6149
:10057000704700000010024029B1064A9269024308
:10058000044B9A6104E0034A92698243014B9A61E9
:10059000704700000010024030B500210022002406
:1005A00000232D4D6D6805F00C0121B1042905D003
:1005B000082923D105E0294D056022E0274D05607B
:1005C0001FE0254D6D6805F47012234D6D6805F42C
:1005D0008034022505EB92421CB9214D554305603C
:1005E0000BE01D4D6D6805F400351DB11C4D5543E4
:1005F000056002E0194D5543056002E0174D0560A6
:1006000000BF00BF144D6D6805F0F0010909154DDC
:100610006B5C0568DD4045600F4D6D6805F4E06179
:10062000090A104D6B5C4568DD4085600A4D6D68B8
:1006300005F46051C90A0B4D6B5C4568DD40C5602F
:10064000054D6D6805F44041890B074D6B5CC5682D
:10065000B5FBF3F5056130BD0010024000127A00D1
:1006600000093D000C0000201C000020704710B560
:1006700000F002F810BD00000CB5002001900090C1
:100680003348006840F480303149086000BF30488A
:10069000006800F4003000900198401C0190009820
:1006A00018B90198B0F5A06FF1D12948006800F49D
:1006B000003010B10120009001E00020009000986F
:1006C000012843D12348006840F010002149086008
:1006D0000846006820F0030008600846006840F003
:1006E000020008601A484068194948600846406896
:1006F00048600846406840F48060486008464068AA
:1007000020F47C1048600846406840F4E8104860D7
:100710000846006840F08070086000BF0C48006820
:1007200000F000700028F9D00948406820F003006C
:10073000074948600846406840F00200486000BF32
:100740000348406800F00C000828F9D10CBD0000F7
:100750000010024000200240042808D14FF0E021A0
:10076000096941F004014FF0E022116107E04FF008
:10077000E021096921F004014FF0E0221161704786
:100780007047000010B51348006840F0010011499F
:10079000086008464068104908400E49486008460D
:1007A00000680E4908400B4908600846006820F4BC
:1007B000802008600846406820F4FE0048604FF43E
:1007C0001F008860FFF753FF4FF000600449086086
:1007D00010BD0000001002400000FFF8FFFFF6FE11
:1007E00008ED00E010B540F225510E4800F05CF92C
:1007F00001280CD140F225510A4800F03CF8094884
:1008000000F00EFA04462146074800F00EFA40F2C6
:100810002441044800F048F9012802D1014800F0C1
:10082000FFF910BD003801400044004010B540F20F
:100830002551094800F038F938B1074800F0F0F9BF
:100840000649087001200649086040F22551024817
:1008500000F011F810BD000000440040000000202E
:100860000400002001F40072B2F5007F00D100BF47
:10087000CA430280704710B50022002340F66A1474
:10088000A14200D100BF0A1201249440A3B2DC436C
:10089000048010BD21B1828942F40052828104E0BB
:1008A00082894DF6FF731A40828170472DE9F0412D
:1008B00086B080460C4615461E460C9F4FF440708D
:1008C000FFF73EFE724880453ED1012144F205000B
:1008D000FFF752FE18208DF817004FF40070ADF8A6
:1008E000140003208DF8160005A96A48FFF7F9FCEB
:1008F00004208DF817000002ADF8140005A9654822
:10090000FFF7EFFC01940020ADF810000C20ADF8CB
:100910000E000020ADF80C00ADF80A00ADF808009C
:1009200001A95B4800F010F9002F0CD025208DF8AC
:10093000000001208DF803008DF801508DF8026051
:100940006846FFF7C5FD8AE05348804540D1012144
:100950000520FFF711FE01214804FFF7FDFD1820D7
:100960008DF817000420ADF8140003208DF8160050
:1009700005A94848FFF7B5FC04208DF817000820AA
:10098000ADF8140005A94348FFF7ABFC0194002023
:10099000ADF810000C20ADF80E000020ADF80C00F2
:1009A000ADF80A00ADF8080001A93B4800F0CCF80A
:1009B000002F54D026208DF8000001208DF8030070
:1009C0008DF801508DF802606846FFF781FD46E022
:1009D0003248804543D101211120FFF7CDFD01218F
:1009E0008804FFF7B9FD18208DF817004FF48060D8
:1009F000ADF8140003208DF8160005A92848FFF76C
:100A000070FC04208DF817004002ADF8140005A911
:100A10002348FFF766FC01212248FFF7EDFC019413
:100A20000020ADF810000C20ADF80E000020ADF84D
:100A30000C00ADF80A00ADF8080001A9174800F055
:100A400083F867B127208DF8000001208DF803009E
:100A50008DF801508DF802606846FFF739FD5FB1EF
:100A6000012240F22551404600F048F8012240F2B0
:100A70002441404600F042F860214046FFF7F2FE74
:100A800001214046FFF706FF06B0BDE8F0810000F7
:100A90000038014000080140004400400048004088
:100AA000001001401000140070B50246002400231D
:100AB0000025002040F66A16B14200D100BFC1F304
:100AC000421501F01F03012606FA03F3012D02D19E
:100AD0009689334006E0022D02D1168A334001E0A8
:100AE000968A33400C12012606FA04F41688344024
:100AF00013B10CB1012000E0002070BDF0B5034639
:100B0000002400260025002040F66A17B94200D1D3
:100B100000BF1846C1F3421401F01F06012707FA6F
:100B200006F5012C01D10C3004E0022C01D110306B
:100B300000E014301AB107682F43076002E007682D
:100B4000AF430760F0BD00002DE9F04786B00546D1
:100B50000E460024A24600BFA1460027B08900B17E
:100B600000BF2F462C8A4CF6FF700440F0880443E7
:100B70002C82AC894EF6F3100440B08831890843CA
:100B8000718908430443AC81AC8A4FF6FF400440AE
:100B9000B0890443AC8201A8FFF7FEFC1F488742DE
:100BA00002D1DDF810A001E0DDF80CA0A88900F466
:100BB000004040B10AEBCA0000EB0A10316849005E
:100BC000B0FBF1F807E00AEBCA0000EB0A1031684D
:100BD0008900B0FBF1F86420B8FBF0F004012009B3
:100BE000642101FB1089A88900F4004040B1322043
:100BF00000EBC900B0FBF1F000F00700044308E08F
:100C0000322000EB09106421B0FBF1F000F00F007E
:100C100004432C8106B0BDE8F08700000038014095
:100C200001468888C0F308007047C1F3080282803B
:100C3000704700BFFEE7000010B56FF00400FFF73B
:100C40008BFD0A4800680A49B0FBF1F009490870B9
:100C50000846007800EB4001C1EBC0104FF6FF7171
:100C600001EAC0000449088010BD000020000020F7
:100C700000127A00080000200A00002008B5FFF7E3
:100C8000DBFF0120002304224FF416510090094895
:100C9000FFF70CFE0120002302224FF416510090B2
:100CA0000548FFF703FEFFF7F3FB01E0FFF7C8FA83
:100CB000FCE700000038014000440040DC0C000864
:100CC000000000203400000028010008100D00087A
:100CD0003400002064060000440100080000000009
:100CE00000000000000000000000000001020304FA
:100CF00001020304060708090204060800A24A04C8
:100D000000000000000000000102030406070809BB
:04000005080000ED02
:00000001FF
